:100000001FC139C138C137C136C135C1B8C233C1CA
:1000100096C2CBC230C12FC12EC146C22CC12BC14A
:100020002AC105A84CCDB2D44EB93836A9020C501D
:10003000B9918688083CA6AAAA2ABE000000803F83
:100040003300340036003B00410047004D005300B0
:1000500059005E00630069006E00730078007D0047
:10006000830088008D00920098009D00A200A800E7
:10007000AD00B300B900BE00C400C900CE00D3007B
:10008000D900DE00E300E800ED00F200F700FC001C
:10009000010106010B01100115011A011F012401C4
:1000A0002A012E01330138013D01420147014C0173
:1000B000520157015C01610167016C017101760118
:1000C0007B01800185018A018F0195019A019F01C1
:1000D000A401A901AE01B301B701BC01C101C60170
:1000E000CB01D001D501DA01DF01E401E801ED0126
:1000F000F201F701FB01000205020A020F021402DD
:1001000019021E02230227022C02310236023B0290
:10011000400245024A024F02540259025E02630243
:1001200067026C02710276027B02800285028A02FB
:100130008F02940298029D02A202A702AC02B002B2
:10014000B502BA02BF02C402C902CE02D202D7026D
:10015000DC02E102E502EA02EE02F302F802FD022D
:10016000020307030B03100315031A031E032303E3
:1001700028032C03310336033B033F0344034903A5
:100180004E03520357035C03610365036A036F0365
:10019000740378037D03820387038C039003950324
:1001A0009A039E03A303A803AD03B103B603BB03E5
:1001B000C003C503C903CE03D303D703DC03E103A4
:1001C000E503EA03EF03F403F903FD030204070464
:1001D0000C041004150419041E04220427042C0422
:1001E000310436043A043F04440449044D045204E3
:1001F00056045B046004640469046D0472047604AC
:100200007B04800485048A048E04930497049C0470
:10021000A104A504AA04AF04B304B804BC04C10437
:10022000C604CA04CF04D404D904DD04E204E604FD
:10023000EB04F004F404F904FD04020507050B05C2
:1002400011241FBECFE5D2E0DEBFCDBF10E0A0E697
:10025000B0E0E6EDFDE102C005900D92A836B107D1
:10026000D9F720E0A8E6B0E001C01D92AC37B20794
:10027000E1F7B5D1AECDC4CEB1990CC08FE396E015
:100280000197F1F700C0000086B38695817091E078
:100290008927089580E008950F931F93CF93DF93EC
:1002A000E0E4F0E0259134912817390708F066C0A2
:1002B000EEE3F2E0259134918217930708F061C0D4
:1002C000A0E0B1E0C0E0D0E09E012A0F3B1F3595D1
:1002D0002795A901440F551FBA01605C7F4FFB01B0
:1002E000059114918017910709F44EC0FB01059107
:1002F000149180179107E8F42115310509F444C0E1
:10030000425C5F4FFA01A591B491A817B90708F0B4
:100310002FC0FB01A591B491FA0145915491A81BFE
:10032000B90B841B950B8A179B0774F5C9010197BC
:100330002CC02F3F3105C9F04E5B5F4FFA01C591CC
:10034000D4918C179D0788F4FA0145915491FB01D3
:1003500065917491FC01E61BF70B481B590BC90111
:10036000E417F50794F0019610C0E901219601C049
:10037000D901CA17DB070CF4A7CF06C080E090E0D4
:1003800004C08FEF90E001C0C901DF91CF911F91B0
:100390000F91089593E19FB9C29890E49EB99BE1B3
:1003A000769902C09DB9FCCF8FB980E48EB98BE1FC
:1003B000769902C08DB9FCCFC29A089598B381E0B6
:1003C000982798BB2FE739EA93E0215030409040BE
:1003D000E1F700C0000098B3892788BB2FE739EA0E
:1003E00083E0215030408040E1F700C000000895D4
:1003F00098B381E0982798BB2FEF30E792E0215027
:1004000030409040E1F700C0000098B3892788BBD6
:100410002FEF30E782E0215030408040E1F700C00C
:100420000000089596B3892F887093FF0AC08FE368
:1004300096E00197F1F700C0000086B383FB8827A0
:1004400080F9089512BE84E686BF80B7836080BFBE
:1004500089B7826089BF83B78D6083BF87EE93E0E1
:1004600095BD84BD1DBC1CBC8CE291E09BBD8ABDCA
:100470008FB580688FBD619A8FB582608FBD609A9D
:100480008EB58A618EBD0895B89AD69A8AB3806374
:100490008ABBBA9AC19ADF9AD99AC29A089586B14C
:1004A0008F6886B91C9A08951F920F920FB60F920B
:1004B00011248F939F93AF93BF9387B1823019F12B
:1004C00050F4882399F0813081F585B180937100D3
:1004D0003898399A2AC08330D9F0873031F585B100
:1004E0008093730087B1887F87B91FC085B190E082
:1004F000A0E0B0E08093740090937500A093760024
:10050000B093770003C085B180937200389A0DC014
:1005100085B190E0A0E0B0E080936D0090936E0014
:10052000A0936F00B09370003A9A369ABF91AF9142
:100530009F918F910F900FBE0F901F9018951F9253
:100540000F920FB60F9211248F939F9380916B009F
:1005500090916C00019690936C0080936B00809159
:10056000690090916A00019690936A0080936900F7
:100570009F918F910F900FBE0F901F9018951F9213
:100580000F920FB60F9211248F939F93F89480913E
:100590007A0090917B009BBD8ABD78949F918F914A
:1005A0000F900FBE0F901F9018951F920F920FB6CD
:1005B0000F9211248F939F93809168008F5F809397
:1005C0006800F894809178009091790086BF7894C3
:1005D0009F918F910F900FBE0F901F901895CF9302
:1005E000DF93CDB7DEB7C555D1090FB6F894DEBF9E
:1005F0000FBECDBF2FEF39E648E1215030404040DB
:10060000E1F700C0000040DF1DDF49DF82E090E03D
:1006100091DB1C0184E690E08DDB2C0181E090E011
:100620007CDB182F80E090E078DB8EAFFBDE21963C
:100630008FAF219788EC90E070DB082FCE010196F8
:100640007C0184E3D7011D928A95E9F715DE81309C
:1006500009F03EC0C098B2DE90EDC92E97E0D92EC9
:10066000EFECF7E03197F1F700C0000005DE8111F3
:1006700011C0FEADF13031F460E080E090E05FDB6E
:100680001EAE06C061E080E090E059DB21E02EAFB5
:10069000AFDE04C031E0C31AD10811F7EDDD8130BF
:1006A000B9F48CDE8BDE80EDC82E87E0D82E8FEC7F
:1006B00097E00197F1F700C00000DEDD811104C072
:1006C00097DE96DE00E004C091E0C91AD10879F700
:1006D0007894369A0D3009F4A5C08CE291E090939D
:1006E0007B0080937A00A3E0ADAB00E0BBE04B2E33
:1006F000B5E05B2E6091740070917500809176007A
:100700009091770053D84B015C01BDA9BC3080F5B6
:10071000CB2ED12C20E030E048EC53E4D9D820E0B7
:1007200030E04FE753E4A9D720E030E048E453E459
:100730003FD74B015C01C601FC01EE0FFF1FEE0F1E
:10074000FF1FEE0DFF1D80829182A282B38201966F
:1007500064E670E00ADA1C01BC0180E090E026D873
:10076000A501940126D7F1D7CB0196DD13DE16C083
:100770008FEF10DE20E030E04FE753E4C501B40115
:100780007CD720E030E048EC53E4A2D820E030E60B
:1007900048E854E40ED7DED71B012B018091690095
:1007A00090916A009101245031098217930728F033
:1007B00010926A0010926900C09A8091690090912D
:1007C0006A00089708F0C098013019F455DD8111CE
:1007D00001C000E051DD813031F4011103C0EDA909
:1007E000EF5FEDAB01E0FDA9FD3009F083CFE0E65E
:1007F000CE2ED12CD7014D915D916D917D917D01D2
:10080000C601AFDAB4E0CB0ED11CE4E9CE16D104B8
:1008100089F76DE088EC90E092DAB20184E690E02E
:10082000A8DA13C070E6C72ED12CC6017EDAD70134
:100830006D937D938D939D937D01B4E0CB0ED11C80
:10084000E4E9CE16D10489F700E0FEADF13021F4E1
:1008500068E5462E62E0562E113011F0822D9ADDA9
:1008600019AE1FAE18AE1FAA1DAA24E833E0609689
:100870003FAF2EAF6097C12CD12C50E8E52E5FE33F
:10088000F52E44E853E02E965FAF4EAF2E971EAA8A
:10089000812C912CC201A0E0B0E08AAF9BAFACAF3D
:1008A000BDAFA9ADA130C9F42CE231E040E050E089
:1008B0002A966CAD7DAD8EAD9FAD2A9767D92FEF8F
:1008C00030E040E050E0AED9ECE2F1E0E21BF30BA7
:1008D0002696FFAFEEAF269703C0F9ADFF23E1F0F8
:1008E00080916D0090916E00A0916F00B0917000AA
:1008F00066962CAD3DAD4EAD5FAD6697821B930BFA
:10090000A40BB50B9C0197FF04C022273327281B9B
:10091000390B2D303105E4F060916D0070916E005F
:1009200080916F00909170002CE231E040E050E047
:100930002DD92FEF30E040E050E074D98CE291E007
:10094000821B930B26969FAF8EAF269719AE24C0BD
:1009500099AD913009F58091640090916500A09166
:100960006600B0916700BC01CD016C597F4F8F4F7D
:100970009F4F2A962CAD3DAD4EAD5FAD2A9706D95F
:100980002FEF30E040E050E04DD92696AEADBFAD40
:1009900026972A0F3B1F22C080916400909165002A
:1009A000A0916600B091670020916D0030916E00BB
:1009B00040916F0050917000BC01CD016C597F4F88
:1009C0008F4F9F4FE3D82FEF30E040E050E02AD91F
:1009D0002696EEADFFAD26972E0F3F1F30937B007E
:1009E00020937A00FFADF13061F48FEF90E06196D3
:1009F0002FAD6197821B91099093790080937800C5
:100A00000FC03FAD31110CC0809172004FEF50E02C
:100A1000481B510950937900409378001FAE0FC0D6
:100A20008091720090E062965FAD6297851B91099C
:100A300097FF03C09195819591090D972CF78091AF
:100A4000780090917900039730F483E090E09093E0
:100A5000790080937800809173006096AEADBFAD51
:100A60006097A81BB109CD01B7FF03C0919581958F
:100A70009109C3970CF441C0FFDB811115C080912F
:100A80007300833308F41DAA80917300833330F020
:100A900080917300863E10F4B1E0BDAB809173008D
:100AA000863E10F0E2E0EDABE7DB8130F1F48091BF
:100AB0007300833310F4F3E0FDAB80917300833354
:100AC00030F080917300863E10F424E02DAB8091CD
:100AD0007300863E10F035E03DAB10926C00109232
:100AE0006B001EAA01E0812C912C80917300482F8D
:100AF00050E060965FAF4EAF60975DA9511118C08E
:100B00006091680070E080E090E052D625EB39ED0E
:100B100049EC5CE3DDD667D720E030E048E453E4FD
:100B2000D7D620E030E048E453E443D50ED665C084
:100B30008DA98130D1F48091680087FD09C01092A1
:100B4000640010926500109266001092670061C008
:100B500020E931E040E050E02093640030936500EC
:100B6000409366005093670054C03DA93230B9F4F9
:100B70008091680087FD04C08091680090E007C004
:100B8000809168004FEF50E0481B5109CA0163E0B3
:100B900070E0EBD7BC01990F880B990B16C05DA9CB
:100BA000533031F46091680070E080E090E00DC057
:100BB0004DA94430B1F4809168006FEF70E0681B7C
:100BC0007109072E000C880B990BF2D5ECD6C2D513
:100BD0006093640070936500809366009093670053
:100BE00018C04530B1F48091680062E3E8D79111F4
:100BF00010C084D861E570E002D8CB01770FAA0B52
:100C0000BB0B8093640090936500A0936600B09343
:100C1000670008DC2B968FAF2B9721969FAD21970D
:100C2000981709F44EC0FEDB813041F420E030E03B
:100C300040E05FE3C701B6014BD605C0A7019601AE
:100C4000C701B601B6D46B017C011130B1F5B10119
:100C500080E090E0ABD5A70196013AD6A4D67AD52C
:100C60003B014616570658F46AAD7BAD8CAD9DAD81
:100C70009DD5A701960101D56DD51B013201C30198
:100C8000C29664E670E0A7D75B01AA0CBB1CAA0C55
:100C9000BB1CA1E0B0E0AC0FBD1FAA0EBB1EB30190
:100CA00080E090E083D5F50120813181428153813C
:100CB00080D44BD5CB01F0DA6DDBB4DB2B968FAF54
:100CC0002B972FA938AD283C310578F4809174001A
:100CD00090917500A0917600B09177002C968FAF1F
:100CE0002C972F5F3F4F38AF2FAB4091740050913E
:100CF000750060917600709177002C963FAD2C972F
:100D0000832F90E0A0E0B0E0841B950BA60BB70BFF
:100D10009C0197FF04C022273327281B390B2D3055
:100D20003105E4F14EAD4130C9F460917400709129
:100D3000750080917600909177002FE730E040E0D9
:100D400050E024D72FEF30E040E050E06BD7122F77
:100D5000B32E822F1FDB212E3B2C12C080917400FA
:100D600090917500A0917600B091770013DB80918F
:100D7000740090917500A0917600B09177001C01ED
:100D80008091740090917500A0917600B0917700E9
:100D90002C968FAF2C971DBC1CBC02C011110EC02D
:100DA0008CB59DB58032934040F060E081E090E0EA
:100DB000C6D7B10182E090E0DCD710E080917100ED
:100DC0002E96AEADBFAD2E97A81BB109CD01B7FFD2
:100DD00003C0919581959109C3970CF4AAC0EFA91E
:100DE000F8ADE83CF10508F4A4C046DA811121C051
:100DF00080917100833330F4C12CD12C30E8E32E84
:100E00003FE3F32E80917100833350F080917100A5
:100E1000863E30F4C12CD12C20E4E22E2FE3F22EBA
:100E200080917100863E28F0C12CD12CE12C9FE3EB
:100E3000F92E22DA813069F580917100833338F41C
:100E40008FE9C82E8AEAD82EED2C8EE3F82E8091F9
:100E50007100833350F080917100863E30F4C12CD4
:100E6000D12C00E8E02E0EE3F02E80917100863E3A
:100E700040F0B6EACB2EBAEADB2EBAE2EB2EBEE3A6
:100E8000FB2E10926C0010926B001EAA01E0812CC8
:100E9000912CC8DA813049F420E030E040E05FE393
:100EA000C701B60115D56B017C011130B1F5B10157
:100EB00080E090E07BD4A70196010AD574D54AD48E
:100EC0003B014616570658F46AAD7BAD8CAD9DAD1F
:100ED0006DD4A7019601D1D33DD41B013201C301CA
:100EE000C29664E670E077D65B01AA0CBB1CAA0C24
:100EF000BB1C21E030E02C0F3D1FA20EB31EB3013E
:100F000080E090E053D4D5012D913D914D915C91BD
:100F100050D31BD4CB01C0D93DDA10926A00109295
:100F2000690080917100E82FF0E02E96FFAFEEAFE0
:100F30002E97A2D98130A9F4011113C08114910414
:100F400081F42FA938AD283C310508F458C01DBCE8
:100F50001CBC10926C0010926B0001E031E03EABC3
:100F600019C042E08416910490F020916B003091FA
:100F70006C00C10163E070E0F8D58217930708F0B8
:100F80003EC07AD981113BC0011139C025C08A9475
:100F9000892879F560916B0070916C0080E090E099
:100FA00005D44B015C016AAD7BAD8CAD9DADFED32C
:100FB000A701960162D320E030E048E454E4F9D27E
:100FC0009B01AC01C501B4017FD41816ACF454D90F
:100FD000811112C0011110C010926C0010926B00B0
:100FE000B10182E090E0C5D661E081E090E0A7D653
:100FF0001EAA812C912C03C088248394912C3CD967
:10100000811104C0013011F4C09800E035D981305D
:1010100009F092C0011190C08114910409F48CC0B0
:101020008CB59DB5843F914048F080916B009091C4
:101030006C00019690936C0080936B0060916B0044
:1010400070916C0080E090E0B1E08B16910459F44F
:10105000ADD3A70196013CD47DD33B0120906B001A
:1010600030906C002DC0A2D3A701960131D42496F4
:101070006CAF7DAF8EAF9FAF2497B30180E090E05F
:1010800095D39B01AC0124966CAD7DAD8EAD9FAD2B
:1010900024978FD220E030E040E05FE319D483D47E
:1010A00059D33B0160916B0070916C00620D731D10
:1010B0007695679580E090E079D375D44BD31B018A
:1010C0004614570458F46AAD7BAD8CAD9DAD6ED31C
:1010D000A7019601D2D23ED31B013201C301C296B1
:1010E00064E670E078D55B01AA0CBB1CAA0CBB1CA3
:1010F000E1E0F0E0EC0FFD1FAE0EBF1EB30180E09B
:1011000090E054D3D5012D913D914D915C9151D2F8
:101110001CD3CB01C1D83ED9BFEF8B1A9B0A1DBC93
:101120001CBC10926C0010926B0010926A0010921E
:101130006900C09A11E001E09FD8813009F0FAC13E
:1011400080916B0090916C00883B9B4008F4F2C149
:10115000013009F0EFC1C09831D955E1A52E55E015
:10116000B52E8FEC97E00197F1F700C0000084D80E
:10117000811190C080E290E0D0D5813009F07FC02D
:1011800081E290E0CAD5182F82E290E0C6D58DABFF
:1011900083E290E0CAD56B017C0187E290E0CAD57A
:1011A0001C0189E290E0C1D52A966CAF7DAF8EAF6D
:1011B0009FAF2A978DE290E0B0D561968FAF61978F
:1011C00031D9813049F420E030E040E05FE3C701ED
:1011D000B6017ED36B017C01B10180E090E0E6D2E4
:1011E000A701960175D3DFD3B5D23B01461657064A
:1011F00058F46AAD7BAD8CAD9DADD8D2A7019601F8
:101200003CD2A8D21B0132011130F1F4C301C296C5
:1012100064E670E0E0D45B01AA0CBB1CAA0CBB1C0A
:10122000A1E0B0E0AC0FBD1FAA0EBB1EB30180E071
:1012300090E0BCD2F5012081318142815381B9D146
:1012400084D2CB0129D801C0822DA4D820916D0071
:1012500030916E0040916F005091700066962CAFF7
:101260003DAF4EAF5FAF66973091720062963FAF71
:10127000629741E049AF51E05FAF18AE1FAAB8D8FE
:101280008FEF92E5A7E081509040A040E1F700C0C9
:10129000000005C0B1E0AB1AB10809F062CFECD78D
:1012A000813009F03EC18AD889D835E1A32E35E0D6
:1012B000B32EEFECF7E03197F1F700C00000DCD778
:1012C000811191C080E490E028D5813009F07FC081
:1012D00081E490E022D5182F82E490E01ED58DABFA
:1012E00083E490E022D56B017C0187E490E022D575
:1012F0001C0189E490E019D52A966CAF7DAF8EAFC2
:101300009FAF2A978DE490E008D561968FAF6197E3
:10131000B10180E090E04AD2A7019601D9D243D32F
:1013200019D23B017FD8813049F420E030E040E021
:101330005FE3C701B601CCD26B017C0146145704B0
:1013400058F46AAD7BAD8CAD9DAD30D2A70196014E
:1013500094D100D21B0132011130F1F4C301C296C5
:1013600064E670E038D45B01AA0CBB1CAA0CBB1C61
:1013700021E030E02C0F3D1FA20EB31EB30180E030
:1013800090E014D2D5012D913D914D915C9111D1F8
:10139000DCD1CB0181D701C0822DFCD720916D001B
:1013A00030916E0040916F005091700066962CAFA6
:1013B0003DAF4EAF5FAF66973091720062963FAF20
:1013C000629741E049AF51E05FAF18AE1FAA10D855
:1013D0000FD88FEF92E5A7E081509040A040E1F751
:1013E00000C0000005C0B1E0AB1AB10809F061CF40
:1013F00043D7813009F095C0C09AEFEFF4E32CE0B9
:10140000E150F0402040E1F700C00000D7D795E15F
:10141000A92E95E0B92E8FEC97E00197F1F700C067
:1014200000002AD7811130C061E080E290E087D4CB
:10143000612F81E290E083D46DA982E290E07FD4B5
:10144000B701A60183E290E08CD4B10187E290E07D
:1014500090D440916D0050916E0060916F0070913A
:10146000700089E290E07DD4609172008DE290E09E
:1014700066D4BED79FEFA2E5B7E09150A040B04040
:10148000E1F700C0000004C0E1E0AE1AB10819F6AF
:10149000F3D6813009F045C091D790D785E1A82EC9
:1014A00085E0B82E8FEC97E00197F1F700C00000BF
:1014B000E3D6811131C061E080E490E040D4612F37
:1014C00081E490E03CD46DA982E490E038D4B70187
:1014D000A60183E490E045D4B10187E490E049D4CB
:1014E00040916D0050916E0060916F00709170009E
:1014F00089E490E036D4609172008DE490E01FD4CE
:1015000077D776D79FEFA2E5B7E09150A040B040E3
:10151000E1F700C0000005C0E1E0AE1AB10809F033
:10152000C1CF10926C0010926B00812C912C113065
:1015300031F414C0113061F0FEA9F1112CC0C09A31
:101540001EAA2B969FAD2B9721969FAF2197A9C9D5
:101550008EA9813019F13EA9311104C08DD688239E
:1015600019F01EAA11E0EDCF8091690090916A00F8
:101570009101245031098217930728F010926A00D4
:1015800010926900C09A8091690090916A00089752
:1015900040F3C098E6CF5EA9513099F621E082165B
:1015A000910419F4013009F4C098113051F6DACFE2
:1015B0005058BB27AA270ED04DC13ED130F043D1A1
:1015C00020F031F49F3F11F41EF433C10EF4E09586
:1015D000E7FB29C1E92F4FD180F3BA1762077307E0
:1015E0008407950718F071F49EF567C10EF4E09535
:1015F0000B2EBA2FA02D0B01B90190010C01CA01CD
:10160000A0011124FF27591B99F0593F50F4503E77
:1016100068F11A16F040A22F232F342F4427585F69
:10162000F3CF469537952795A795F0405395C9F781
:101630007EF41F16BA0B620B730B840BBAF0915039
:10164000A1F0FF0FBB1F661F771F881FC2F70EC0D8
:10165000BA0F621F731F841F48F4879577956795AB
:10166000B795F7959E3F08F0B3CF9395880F08F094
:101670009927EE0F9795879508950CD0EBC0E3D08E
:1016800040F0DAD030F021F45F3F19F0CCC05111B6
:1016900015C1CFC0F0D098F39923C9F35523B1F306
:1016A000951B550BBB27AA2762177307840738F0D1
:1016B0009F5F5F4F220F331F441FAA1FA9F333D030
:1016C0000E2E3AF0E0E830D091505040E695001CE4
:1016D000CAF729D0FE2F27D0660F771F881FBB1FA0
:1016E000261737074807AB07B0E809F0BB0B802D7A
:1016F000BF01FF2793585F4F2AF09E3F510568F0C6
:1017000092C0DCC05F3FECF3983EDCF386957795A2
:101710006795B795F7959F5FC9F7880F911D9695C7
:10172000879597F90895E1E0660F771F881FBB1F23
:10173000621773078407BA0720F0621B730B840BD0
:10174000BA0BEE1F88F7E095089504D06894B111A4
:10175000B5C0089598D088F09F5790F0B92F992779
:10176000B751A0F0D1F0660F771F881F991F1AF0AC
:10177000BA95C9F712C0B13081F09FD0B1E0089599
:101780009CC0672F782F8827B85F39F0B93FCCF31A
:10179000869577956795B395D9F73EF490958095A2
:1017A000709561957F4F8F4F9F4F0895E89409C0C2
:1017B00097FB3EF490958095709561957F4F8F4F84
:1017C0009F4F9923A9F0F92F96E9BB279395F6959A
:1017D000879577956795B795F111F8CFFAF4BB0F18
:1017E00011F460FF1BC06F5F7F4F8F4F9F4F16C07C
:1017F000882311F096E911C0772321F09EE8872F06
:10180000762F05C0662371F096E8862F70E060E0C1
:101810002AF09A95660F771F881FDAF7880F96953A
:10182000879597F9089597F99F6780E870E060E0E1
:1018300008959FEF80EC089500240A941616170669
:1018400018060906089500240A94121613061406B1
:1018500005060895092E0394000C11F4882352F014
:10186000BB0F40F4BF2B11F460FF04C06F5F7F4FCC
:101870008F4F9F4F089557FD9058440F551F59F0B3
:101880005F3F71F04795880F97FB991F61F09F3F6D
:1018900079F087950895121613061406551FF2CF96
:1018A0004695F1DF08C0161617061806991FF1CFE6
:1018B00086957105610508940895E894BB2766270D
:1018C0007727CB0197F9089594D008F48FEF089506
:1018D0000AD0C0CFB1DF28F0B6DF18F0952309F0A9
:1018E000A2CFA7CFEBCFC7DFA8F39923D9F3552316
:1018F000C9F3950F50E0551FAA27EE27FF27BB27F6
:1019000000240894679520F4E20FF31FB41F0A1E09
:10191000220F331F441FAA1F6695A9F7779530F44D
:10192000F30FB41F0A1E121E08F46395330F441FF1
:10193000AA1F221F769599F7879520F4B40F0A1EE7
:10194000121E631F440FAA1F221F331F8695A9F77B
:10195000862F712D602D11249F5750408AF0E1F0A1
:1019600088234AF0EE0FFF1FBB1F661F771F881FDB
:1019700091505040A9F79E3F510570F054CF9ECF33
:101980005F3FECF3983EDCF3869577956795B795C6
:10199000F795E7959F5FC1F7FE2B880F911D9695F0
:1019A000879597F908956FDFE0F09E37D8F0963964
:1019B000B8F49E3848F4672F782F8827985FF9CFBE
:1019C00086957795679593959539D0F3B62FB17035
:1019D0006B0F711D811D20F4879577956795939501
:1019E0002CC046C06BCF9F9352D00F9007FCEE5F88
:1019F00075C0990F0008550FAA0BE0E8FEEF161608
:101A00001706E807F907C0F012161306E407F507F2
:101A100098F0621B730B840B950B39F40A2661F066
:101A2000232B242B252B21F408950A2609F4A14009
:101A3000A6958FEF811D811D0895882371F477236A
:101A400021F09850872B762F07C0662311F4992731
:101A50000DC09051862B70E060E02AF09A95660FD9
:101A6000771F881FDAF7880F9695879597F908955D
:101A70009F3F31F0915020F4879577956795B79502
:101A8000880F911D9695879597F90895D2CEFBDE24
:101A9000E8F3E894E0E0BB279F57F0F02AED3FE041
:101AA00049EC06C0EE0FBB0F661F771F881F28F09A
:101AB000B23A62077307840728F0B25A620B730BBD
:101AC000840BE3959A9572F7803830F49A95BB0FA2
:101AD000661F771F881FD2F79048CCCFEF93E0FFA7
:101AE00006C0A2EA2AED3FE049EC5FEB73DDB2DE0F
:101AF0000F90039401FC9058E2E2F0E000C09F9345
:101B00008F937F936F93FF93EF939B01AC01E0DE84
:101B1000EF91FF9105D02F913F914F915F91D8CEDA
:101B2000DF93CF931F930F93FF92EF92DF927B018E
:101B30008C01689405C0DA2EEF01D5DEFE01E89431
:101B4000A5912591359145915591AEF3EF0142DD77
:101B5000FE019701A801DA9479F7DF90EF90FF90EA
:101B60000F911F91CF91DF9108950024552704C054
:101B7000080E591F880F991F009729F076956795D1
:101B8000B8F37105B9F7802D952F0895EE27FF273B
:101B9000AA27BB2708C0A20FB31FE41FF51F220FFF
:101BA000331F441F551F969587957795679598F332
:101BB0007040A9F7009799F7BD01CF010895991BCF
:101BC00079E004C0991F961708F0961B881F7A9534
:101BD000C9F780950895AA1BBB1B51E107C0AA1F36
:101BE000BB1FA617B70710F0A61BB70B881F991FBE
:101BF0005A95A9F780959095BC01CD01089597FB62
:101C0000072E16F4009406D077FD08D0E4DF07FC19
:101C100005D03EF4909581959F4F089570956195FC
:101C20007F4F0895A1E21A2EAA1BBB1BFD010DC018
:101C3000AA1FBB1FEE1FFF1FA217B307E407F5077C
:101C400020F0A21BB30BE40BF50B661F771F881F58
:101C5000991F1A9469F760957095809590959B01EE
:101C6000AC01BD01CF0108958F929F92AF92BF92B8
:101C7000CF92DF92EF92FF92CF93DF93EC016881D6
:101C800079818A819B81611571058105910521F416
:101C900064E279ED8BE597E02DE133EF41E050E030
:101CA0007CD049015A0127EA31E440E050E06EDF80
:101CB0006B017C012CEE34EF4FEF5FEFC501B401F7
:101CC00065DFDC01CB018C0D9D1DAE1DBF1DB7FF77
:101CD00003C00197A109B04888839983AA83BB8375
:101CE0009F77DF91CF91FF90EF90DF90CF90BF90E3
:101CF000AF909F908F900895B7DF089580E690E0B1
:101D0000B3DF0895A0E0B0E080936000909361009D
:101D1000A0936200B09363000895E199FECF9FBB4A
:101D20008EBBE09A99278DB30895A6E1B0E044E018
:101D300050E025C0A8E1B0E042E050E020C0262FEE
:101D4000E199FECF9FBB8EBBE09A01970DB20216C0
:101D500039F01CBA2DBB0FB6F894E29AE19A0FBE87
:101D600008950396272FECDFEADF252FE9DF242FE4
:101D7000E7CF0196272FE4DFE2CFDC01CB01FC01A6
:101D8000E199FECF06C0FFBBEEBBE09A31960DB2E3
:101D90000D9241505040B8F70895052E97FB16F468
:101DA00000940FD057FD05D03DDF07FC02D046F46C
:101DB00008C050954095309521953F4F4F4F5F4F4C
:101DC000089590958095709561957F4F8F4F9F4FA7
:061DD0000895F894FFCF16
:081DD60001000000F40100000F
:00000001FF
