:100000001FC139C138C137C136C135C1B8C233C1CA
:1000100096C2CBC230C12FC12EC146C22CC12BC14A
:100020002AC105A84CCDB2D44EB93836A9020C501D
:10003000B9918688083CA6AAAA2ABE000000803F83
:100040003300340036003B00410047004D005300B0
:1000500059005E00630069006E00730078007D0047
:10006000830088008D00920098009D00A200A800E7
:10007000AD00B300B900BE00C400C900CE00D3007B
:10008000D900DE00E300E800ED00F200F700FC001C
:10009000010106010B01100115011A011F012401C4
:1000A0002A012E01330138013D01420147014C0173
:1000B000520157015C01610167016C017101760118
:1000C0007B01800185018A018F0195019A019F01C1
:1000D000A401A901AE01B301B701BC01C101C60170
:1000E000CB01D001D501DA01DF01E401E801ED0126
:1000F000F201F701FB01000205020A020F021402DD
:1001000019021E02230227022C02310236023B0290
:10011000400245024A024F02540259025E02630243
:1001200067026C02710276027B02800285028A02FB
:100130008F02940298029D02A202A702AC02B002B2
:10014000B502BA02BF02C402C902CE02D202D7026D
:10015000DC02E102E502EA02EE02F302F802FD022D
:10016000020307030B03100315031A031E032303E3
:1001700028032C03310336033B033F0344034903A5
:100180004E03520357035C03610365036A036F0365
:10019000740378037D03820387038C039003950324
:1001A0009A039E03A303A803AD03B103B603BB03E5
:1001B000C003C503C903CE03D303D703DC03E103A4
:1001C000E503EA03EF03F403F903FD030204070464
:1001D0000C041004150419041E04220427042C0422
:1001E000310436043A043F04440449044D045204E3
:1001F00056045B046004640469046D0472047604AC
:100200007B04800485048A048E04930497049C0470
:10021000A104A504AA04AF04B304B804BC04C10437
:10022000C604CA04CF04D404D904DD04E204E604FD
:10023000EB04F004F404F904FD04020507050B05C2
:1002400011241FBECFE5D2E0DEBFCDBF10E0A0E697
:10025000B0E0E2E7FFE102C005900D92A836B107D9
:10026000D9F720E0A8E6B0E001C01D92AC37B20794
:10027000E1F7B5D17CCEC4CEB1990CC08FE396E046
:100280000197F1F700C0000086B38695817091E078
:100290008927089580E008950F931F93CF93DF93EC
:1002A000E0E4F0E0259134912817390708F066C0A2
:1002B000EEE3F2E0259134918217930708F061C0D4
:1002C000A0E0B1E0C0E0D0E09E012A0F3B1F3595D1
:1002D0002795A901440F551FBA01605C7F4FFB01B0
:1002E000059114918017910709F44EC0FB01059107
:1002F000149180179107E8F42115310509F444C0E1
:10030000425C5F4FFA01A591B491A817B90708F0B4
:100310002FC0FB01A591B491FA0145915491A81BFE
:10032000B90B841B950B8A179B0774F5C9010197BC
:100330002CC02F3F3105C9F04E5B5F4FFA01C591CC
:10034000D4918C179D0788F4FA0145915491FB01D3
:1003500065917491FC01E61BF70B481B590BC90111
:10036000E417F50794F0019610C0E901219601C049
:10037000D901CA17DB070CF4A7CF06C080E090E0D4
:1003800004C08FEF90E001C0C901DF91CF911F91B0
:100390000F91089593E19FB9C29890E49EB99BE1B3
:1003A000769902C09DB9FCCF8FB980E48EB98BE1FC
:1003B000769902C08DB9FCCFC29A089598B381E0B6
:1003C000982798BB2FE739EA93E0215030409040BE
:1003D000E1F700C0000098B3892788BB2FE739EA0E
:1003E00083E0215030408040E1F700C000000895D4
:1003F00098B381E0982798BB2FEF30E792E0215027
:1004000030409040E1F700C0000098B3892788BBD6
:100410002FEF30E782E0215030408040E1F700C00C
:100420000000089596B3892F887093FF0AC08FE368
:1004300096E00197F1F700C0000086B383FB8827A0
:1004400080F9089512BE84E686BF80B7836080BFBE
:1004500089B7826089BF83B78D6083BF87EE93E0E1
:1004600095BD84BD1DBC1CBC8CE291E09BBD8ABDCA
:100470008FB580688FBD619A8FB582608FBD609A9D
:100480008EB58A618EBD0895B89AD69A8AB3806374
:100490008ABBBA9AC19ADF9AD99AC29A089586B14C
:1004A0008F6886B91C9A08951F920F920FB60F920B
:1004B00011248F939F93AF93BF9387B1823019F12B
:1004C00050F4882399F0813081F585B180937100D3
:1004D0003898399A2AC08330D9F0873031F585B100
:1004E0008093730087B1887F87B91FC085B190E082
:1004F000A0E0B0E08093740090937500A093760024
:10050000B093770003C085B180937200389A0DC014
:1005100085B190E0A0E0B0E080936D0090936E0014
:10052000A0936F00B09370003A9A369ABF91AF9142
:100530009F918F910F900FBE0F901F9018951F9253
:100540000F920FB60F9211248F939F9380916B009F
:1005500090916C00019690936C0080936B00809159
:10056000690090916A00019690936A0080936900F7
:100570009F918F910F900FBE0F901F9018951F9213
:100580000F920FB60F9211248F939F93F89480913E
:100590007A0090917B009BBD8ABD78949F918F914A
:1005A0000F900FBE0F901F9018951F920F920FB6CD
:1005B0000F9211248F939F93809168008F5F809397
:1005C0006800F894809178009091790086BF7894C3
:1005D0009F918F910F900FBE0F901F901895CF9302
:1005E000DF93CDB7DEB7C655D1090FB6F894DEBF9D
:1005F0000FBECDBF2FEF39E648E1215030404040DB
:10060000E1F700C0000040DF1DDF49DF82E090E03D
:100610005FDC1C0184E690E05BDC2C0181E090E073
:100620004ADC182F80E090E046DC23968FAF2397BA
:10063000F9DE67968FAF679788EC90E03CDC082F77
:10064000CE0101967C0184E3D7011D928A95E9F7DA
:1006500013DE813009F068C0C098B0DE90EDC92E7D
:1006600097E0D92EEFECF7E03197F1F700C00000EA
:1006700003DE811129C02396FFAD2397F13041F4A9
:1006800060E080E090E029DC23961FAE239708C04D
:1006900061E080E090E021DC21E023962FAF2397FA
:1006A0003FE749EA53E0315040405040E1F700C095
:1006B00000009EDE8FE799EAA3E081509040A040C1
:1006C000E1F700C0000004C0B1E0CB1AD10851F638
:1006D000D3DD813049F572DE71DE80EDC82E87E012
:1006E000D82EEFECF7E03197F1F700C00000C4DD41
:1006F000811116C0FFE729EA33E0F1502040304075
:10070000E1F700C0000074DE73DE4FE759EA83E0D2
:10071000415050408040E1F700C0000000E004C0BC
:1007200091E0C91AD108E9F67894369A0D3009F4A7
:10073000B5C08CE291E090937B0080937A0003E057
:100740001DAABBE04B2EB5E05B2E6091740070914A
:1007500075008091760090917700F6D84B015C018E
:100760000C30E8F5C02ED12CC601019664E670E08D
:10077000CADA1C0163E070E0FCDA80E090E0E4D8C3
:10078000A501940173D920E030E04FE753E443D84A
:100790004B015C01C10166E070E0EBDA80E090E0C3
:1007A000D3D89B01AC01C501B401D0D74B015C018A
:1007B000CC0CDD1CCC0CDD1CF701EC0DFD1D6083A9
:1007C000718382839383B10180E090E0BDD8A5015D
:1007D0009401BDD788D8CB015FDDDCDD18C08FEF79
:1007E000D9DD20E030E048EC53E4C501B4013ED946
:1007F00020E030E04FE753E40ED89B01AC0160E00D
:1008000070E68AEB94E4A2D773D81B012B01809188
:10081000690090916A009101245031098217930771
:1008200028F010926A0010926900C09A80916900C5
:1008300090916A00089708F0C098ADA9A13019F40A
:100840001BDD811101C01DAA17DD813049F4BDA94E
:10085000B11104C00F5FE1E0EDAB02C0F1E0FDAB10
:100860000D3009F072CFF0E6CF2ED12CD7014D918B
:100870005D916D917D917D01C60141DBB4E0CB0EB0
:10088000D11CE4E9CE16D10489F76DE088EC90E044
:1008900024DBB20184E690E03ADB13C0E0E6CE2E22
:1008A000D12CC60110DBD7016D937D938D939D9361
:1008B0007D01B4E0CB0ED11CE4E9CE16D10489F75A
:1008C0001DAA2396FFAD2397F13021F478E5472E3A
:1008D00072E0572E113011F0822D5CDD1DAE1CAE82
:1008E00024961FAE24971BAE1AAE00E024E833E036
:1008F00060963FAF2EAF6097C12CD12C60E8E62EFA
:100900006FE3F62E44E853E02E965FAF4EAF2E977E
:1009100019AE812C912CC201A0E0B0E022968CAFE0
:100920009DAFAEAFBFAF2297ACADA130C9F42CE202
:1009300031E040E050E02B966CAD7DAD8EAD9FADCB
:100940002B97F2D92FEF30E040E050E039DAECE2BB
:10095000F1E0E21BF30B2796FFAFEEAF279703C042
:10096000FCADFF23E1F080916D0090916E00A091AD
:100970006F00B091700066962CAD3DAD4EAD5FAD91
:100980006697821B930BA40BB50B9C0197FF04C0C9
:1009900022273327281B390B2D303105E4F06091D5
:1009A0006D0070916E0080916F00909170002CE24C
:1009B00031E040E050E0B8D92FEF30E040E050E0C7
:1009C000FFD98CE291E0821B930B27969FAF8EAFED
:1009D00027971CAE24C09CAD913009F5809164002E
:1009E00090916500A0916600B0916700BC01CD01B7
:1009F0006C597F4F8F4F9F4F2B962CAD3DAD4EAD19
:100A00005FAD2B9791D92FEF30E040E050E0D8D97F
:100A10002796AEADBFAD27972A0F3B1F22C080910E
:100A2000640090916500A0916600B09167002091EC
:100A30006D0030916E0040916F0050917000BC01CC
:100A4000CD016C597F4F8F4F9F4F6ED92FEF30E004
:100A500040E050E0B5D92796EEADFFAD27972E0FB9
:100A60003F1F30937B0020937A002496FFAD24979C
:100A7000F13061F48FEF90E061962FAD6197821BAA
:100A80009109909379008093780013C024963FAD2C
:100A9000249731110EC0809172004FEF50E0481B37
:100AA0005109509379004093780024961FAE249703
:100AB0000FC08091720090E062965FAD6297851BD7
:100AC000910997FF03C09195819591090D971CF7A6
:100AD0008091780090917900039730F483E090E062
:100AE0009093790080937800809173006096AEAD0A
:100AF000BFAD6097A81BB109CD01B7FF03C09195A9
:100B000081959109C397ECF1B7DB811113C08091F6
:100B10007300833308F400E080917300833328F07E
:100B200080917300863E08F401E080917300863E58
:100B300008F002E0A1DB8130E1F48091730083339F
:100B400008F403E080917300833328F080917300F0
:100B5000863E08F404E080917300863E08F005E0CC
:100B600010926C0010926B0019AEB1E0BDAB812CFD
:100B7000912C80917300E82FF0E06096FFAFEEAF0C
:100B80006097011118C06091680070E080E090E00B
:100B9000DDD625EB39ED49EC5CE368D7F2D720E0F0
:100BA00030E048E453E462D720E030E048E453E426
:100BB000CED599D661C00130D1F48091680087FD0F
:100BC00009C01092640010926500109266001092A5
:100BD00067005EC020E931E040E050E0209364000F
:100BE00030936500409366005093670051C0023017
:100BF000B9F48091680087FD04C08091680090E09E
:100C000007C0809168004FEF50E0481B5109CA01AE
:100C100063E070E078D8BC01990F880B990B14C081
:100C2000033031F46091680070E080E090E00CC027
:100C30000430B1F4809168006FEF70E0681B7109B7
:100C4000072E000C880B990B81D67BD751D6609369
:100C5000640070936500809366009093670018C0ED
:100C60000530B1F48091680062E377D8911110C02B
:100C700013D961E570E091D8CB01770FAA0BBB0BBC
:100C80008093640090936500A0936600B093670022
:100C9000C9DB2C968FAF2C9767965FAD6797581777
:100CA00009F450C0BFDB813041F420E030E040E087
:100CB0005FE3C701B601DAD605C0A7019601C701F7
:100CC000B60145D56B017C011130C1F5B10180E061
:100CD00090E03AD6A7019601C9D633D709D63B0191
:100CE0004616570668F422966CAD7DAD8EAD9FAD6D
:100CF00022972AD6A70196018ED5FAD51B0132017B
:100D0000C301C29664E670E034D85B01AA0CBB1C38
:100D1000AA0CBB1C81E090E08C0F9D1FA80EB91E91
:100D2000B30180E090E010D6D5012D913D914D9119
:100D30005C910DD5D8D5CB01AFDA2CDB73DB2C96CB
:100D40008FAF2C97EAADFBADE83CF10570F48091D4
:100D5000740090917500A0917600B091770025966F
:100D60008FAF25973196FBAFEAAF1130F9F4409180
:100D7000740050917500609176007091770025960F
:100D8000FFAD25978F2F90E0A0E0B0E0841B950B7E
:100D9000A60BB70B9C0197FF04C022273327281B03
:100DA000390B2F3031050CF043C023C02DAD21305D
:100DB00021F511118BC04091740050917500609124
:100DC00076007091770025963FAD2597832F90E0B0
:100DD000A0E0B0E0841B950BA60BB70B9C0197FF1E
:100DE00004C022273327281B390B2F30310504F587
:100DF0005FC0BDADB13009F469C04DAD411156C001
:100E0000111164C04091740050917500609176009A
:100E1000709177002596EFAD25978E2F90E0A0E09A
:100E2000B0E0841B950BA60BB70B892B09F456C4B5
:100E30002396FFAD2397F130C9F46091740070914F
:100E4000750080917600909177002FE730E040E0C8
:100E500050E06AD72FEF30E040E050E0B1D7122FDA
:100E6000B32E822F97DA212E3B2C12C08091740072
:100E700090917500A0917600B09177008BDA809107
:100E8000740090917500A0917600B09177001C01DC
:100E90008091740090917500A0917600B0917700D8
:100EA00025968FAF25971DBC1CBC18C411110EC010
:100EB0008CB59DB58032934040F060E081E090E0D9
:100EC0000CD8B10182E090E022D810E0809171004E
:100ED0002E964EAD5FAD2E97481B5109CA0157FFA4
:100EE00003C0919581959109C3970CF4ADC08AAD6B
:100EF0009BAD883C910508F4A7C0BED9811121C0E3
:100F000080917100833330F4C12CD12C40E8E42E61
:100F10004FE3F42E80917100833350F08091710083
:100F2000863E30F4C12CD12C30E4E32E3FE3F32E87
:100F300080917100863E28F0C12CD12CE12C2FE34A
:100F4000F22E9AD9813071F580917100833338F493
:100F50009FE9C92E9AEAD92EED2C9EE3F92E8091B5
:100F60007100833350F080917100863E30F4C12CC3
:100F7000D12C80E8E82E8EE3F82E80917100863E19
:100F800040F0B6EACB2EBAEADB2EBAE2EB2EBEE395
:100F9000FB2E10926C0010926B0019AE91E09DAB8D
:100FA000812C912C3FDA813049F420E030E040E0A0
:100FB0005FE3C701B6015AD56B017C011130C1F561
:100FC000B10180E090E0C0D4A70196014FD5B9D51A
:100FD0008FD43B014616570668F422966CAD7DAD62
:100FE0008EAD9FAD2297B0D4A701960114D480D4C2
:100FF0001B013201C301C29664E670E0BAD65B0100
:10100000AA0CBB1CAA0CBB1CA1E0B0E0AC0FBD1F1E
:10101000AA0EBB1EB30180E090E096D4F5012081BA
:1010200031814281538193D35ED4CB0135D9B2D97A
:1010300010926A001092690080917100282F30E0B0
:101040002E963FAF2EAF2E9717D98130B1F43DA920
:10105000311113C08114910481F44AAD5BAD483C59
:10106000510508F45CC01DBC1CBC10926C001092B1
:101070006B0051E05DAB89AF1AC092E08916910414
:1010800098F020916B0030916C00C10163E070E03A
:101090003AD68217930708F042C0EED881113FC0BC
:1010A000ADA9A1113CC028C08A94892891F560910E
:1010B0006B0070916C0080E090E046D44B015C01C5
:1010C00022966CAD7DAD8EAD9FAD22973DD4A7012C
:1010D0009601A1D320E030E048E454E438D39B01EA
:1010E000AC01C501B401BED41816B4F4C5D8811141
:1010F00013C0EDA9E11110C010926C0010926B00AA
:10110000B10182E090E003D761E081E090E0E5D6B4
:1011100019AE812C912C03C088248394912CACD8D7
:10112000811105C0FDA9F13011F4C0981DAAA4D801
:10113000813009F092C02DA921118FC08114910432
:1011400009F48BC08CB59DB5843F914048F08091E7
:101150006B0090916C00019690936C0080936B00F3
:1011600060916B0070916C0080E090E041E084162B
:10117000910459F4E9D3A701960178D4B9D33B017E
:1011800020906B0030906C0029C0DED3A70196013F
:101190006DD46DAB7EAB8FAB98AFB30180E090E0C8
:1011A000D3D39B01AC016DA97EA98FA998ADCFD2F5
:1011B00020E030E040E05FE359D4C3D499D33B0151
:1011C00060916B0070916C00620D731D7695679550
:1011D00080E090E0B9D3B5D48BD31B0146145704FB
:1011E00068F422966CAD7DAD8EAD9FAD2297ACD3E9
:1011F000A701960110D37CD31B013201C301C29613
:1012000064E670E0B6D55B01AA0CBB1CAA0CBB1C43
:1012100081E090E08C0F9D1FA80EB91EB30180E005
:1012200090E092D3D5012D913D914D915C918FD25B
:101230005AD3CB0131D8AED8BFEF8B1A9B0A1DBC55
:101240001CBC10926C0010926B0010926A001092FD
:101250006900C09A11E0E1E0EDAB0ED8813009F0F1
:1012600030C280916B0090916C00883B9B4008F4E9
:1012700028C22DA9213009F024C2C0989FD855E179
:10128000A52E55E0B52E8FEC97E00197F1F700C041
:101290000000F2D781119FC080E290E00CD681302F
:1012A00009F085C081E290E006D6182F82E290E036
:1012B00002D6082F83E290E006D66B017C0187E21C
:1012C00090E006D61C0189E290E0FDD52B966CAF2C
:1012D0007DAF8EAF9FAF2B978DE290E0ECD56196FE
:1012E0008FAF61979FD8813049F420E030E040E033
:1012F0005FE3C701B601BAD36B017C01B10180E0A5
:1013000090E022D3A7019601B1D31BD4F1D23B01C7
:101310004616570668F422966CAD7DAD8EAD9FAD36
:10132000229712D3A701960176D2E2D21B01320195
:101330001130F1F4C301C29664E670E01AD55B0186
:10134000AA0CBB1CAA0CBB1CA1E0B0E0AC0FBD1FDB
:10135000AA0EBB1EB30180E090E0F6D2F501208119
:10136000318142815381F3D1BED2CB0195D701C0E7
:10137000822D10D820916D0030916E0040916F0049
:101380005091700066962CAF3DAF4EAF5FAF669741
:101390003091720062963FAF629741E04DAF51E0ED
:1013A0005CAF81E024968FAF24971BAE1AAE9FE707
:1013B000A9EAB3E09150A040B040E1F700C00000BE
:1013C00017D8EFE7F9EA23E0E150F0402040E1F7D9
:1013D00000C0000005C031E0A31AB10809F053CFE6
:1013E0004BD7813009F066C1E9D7E8D735E1A32EA4
:1013F00035E0B32E8FEC97E00197F1F700C00000C5
:101400003BD78111A0C080E490E055D5813009F030
:1014100085C081E490E04FD5182F82E490E04BD551
:10142000082F83E490E04FD56B017C0187E490E0C6
:101430004FD51C0189E490E046D52B966CAF7DAF6B
:101440008EAF9FAF2B978DE490E035D561968FAF2F
:101450006197B10180E090E077D2A701960106D3B1
:1014600070D346D23B01DED7813049F420E030E032
:1014700040E05FE3C701B601F9D26B017C0146147D
:10148000570468F422966CAD7DAD8EAD9FAD22976A
:101490005BD2A7019601BFD12BD21B0132011130C3
:1014A000F1F4C301C29664E670E063D45B01AA0C58
:1014B000BB1CAA0CBB1CA1E0B0E0AC0FBD1FAA0E68
:1014C000BB1EB30180E090E03FD2F5012081318165
:1014D000428153813CD107D2CB01DED601C0822D9F
:1014E00059D720916D0030916E0040916F0050915E
:1014F000700066962CAF3DAF4EAF5FAF66973091F0
:10150000720062963FAF629741E04DAF51E05CAF31
:1015100081E024968FAF24971BAE1AAE9FE7A9EA0D
:10152000B3E09150A040B040E1F700C0000060D7A8
:101530005FD7EFE7F9EA23E0E150F0402040E1F720
:1015400000C0000005C031E0A31AB10809F052CF75
:1015500093D6813009F0AEC0C09A4FEF54E38CE0CF
:10156000415050408040E1F700C0000027D795E18E
:10157000A92E95E0B92EAFECB7E01197F1F700C0B6
:1015800000007AD6811139C061E080E290E0A5D4F4
:10159000612F81E290E0A1D4602F82E290E09DD49F
:1015A000B701A60183E290E0AAD4B10187E290E0FE
:1015B000AED440916D0050916E0060916F007091BB
:1015C000700089E290E09BD4609172008DE290E01F
:1015D00084D4BFE7E9EAF3E0B150E040F040E1F73E
:1015E00000C0000005D72FE739EA43E02150304022
:1015F0004040E1F700C0000005C051E0A51AB10865
:1016000009F0B9CF39D6813009F054C0D7D6D6D633
:1016100085E1A82E85E0B82E8FEC97E00197F1F7D1
:1016200000C0000029D681113AC061E080E490E05A
:1016300054D4612F81E490E050D4602F82E490E094
:101640004CD4B701A60183E490E059D4B10187E4FA
:1016500090E05DD440916D0050916E0060916F00FC
:101660007091700089E490E04AD4609172008DE43A
:1016700090E033D49FE7A9EAB3E09150A040B04096
:10168000E1F700C00000B4D6B3D6EFE7F9EA23E0F3
:10169000E150F0402040E1F700C0000005C031E01B
:1016A000A31AB10809F0B8CFE7D5813019F4A0D654
:1016B0009FD69ED610926C0010926B0019AE812CB2
:1016C000912C113089F049AD41110AC0C09A2C9675
:1016D0009FAD2C9767969FAF679726C91DAEE8CB45
:1016E00099AD913071F1F3CFA9ADA130F9F089AD89
:1016F000882311F011E0EBCFBFD58111FBCF809192
:10170000690090916A009101245031098217930772
:1017100028F010926A0010926900C09A80916900C6
:1017200090916A00089730F3C098E4CFE1E08E16FC
:10173000910469F65DA9513009F4C098113039F669
:10174000D9CFF1E08F16910411F6F4CF5058BB2792
:10175000AA270ED04DC13ED130F043D120F031F454
:101760009F3F11F41EF433C10EF4E095E7FB29C14D
:10177000E92F4FD180F3BA176207730784079507E3
:1017800018F071F49EF567C10EF4E0950B2EBA2F98
:10179000A02D0B01B90190010C01CA01A001112477
:1017A000FF27591B99F0593F50F4503E68F11A1623
:1017B000F040A22F232F342F4427585FF3CF4695B4
:1017C00037952795A795F0405395C9F77EF41F16D6
:1017D000BA0B620B730B840BBAF09150A1F0FF0FA0
:1017E000BB1F661F771F881FC2F70EC0BA0F621F8C
:1017F000731F841F48F4879577956795B795F7957C
:101800009E3F08F0B3CF9395880F08F09927EE0F0D
:101810009795879508950CD0EBC0E3D040F0DAD0CF
:1018200030F021F45F3F19F0CCC0511115C1CFC089
:10183000F0D098F39923C9F35523B1F3951B550BB9
:10184000BB27AA2762177307840738F09F5F5F4F93
:10185000220F331F441FAA1FA9F333D00E2E3AF0D4
:10186000E0E830D091505040E695001CCAF729D0EE
:10187000FE2F27D0660F771F881FBB1F261737073D
:101880004807AB07B0E809F0BB0B802DBF01FF276D
:1018900093585F4F2AF09E3F510568F092C0DCC01C
:1018A0005F3FECF3983EDCF3869577956795B795A7
:1018B000F7959F5FC9F7880F911D9695879597F9C2
:1018C0000895E1E0660F771F881FBB1F621773073B
:1018D0008407BA0720F0621B730B840BBA0BEE1F50
:1018E00088F7E095089504D06894B111B5C00895C3
:1018F00098D088F09F5790F0B92F9927B751A0F052
:10190000D1F0660F771F881F991F1AF0BA95C9F793
:1019100012C0B13081F09FD0B1E008959CC0672F14
:10192000782F8827B85F39F0B93FCCF38695779543
:101930006795B395D9F73EF490958095709561952C
:101940007F4F8F4F9F4F0895E89409C097FB3EF457
:1019500090958095709561957F4F8F4F9F4F9923FC
:10196000A9F0F92F96E9BB279395F695879577957A
:101970006795B795F111F8CFFAF4BB0F11F460FF3A
:101980001BC06F5F7F4F8F4F9F4F16C0882311F092
:1019900096E911C0772321F09EE8872F762F05C0A6
:1019A000662371F096E8862F70E060E02AF09A9541
:1019B000660F771F881FDAF7880F9695879597F936
:1019C000089597F99F6780E870E060E008959FEFC1
:1019D00080EC089500240A941616170618060906C6
:1019E000089500240A941216130614060506089595
:1019F000092E0394000C11F4882352F0BB0F40F41D
:101A0000BF2B11F460FF04C06F5F7F4F8F4F9F4F5C
:101A1000089557FD9058440F551F59F05F3F71F0DE
:101A20004795880F97FB991F61F09F3F79F0879545
:101A30000895121613061406551FF2CF4695F1DFCE
:101A400008C0161617061806991FF1CF869571055E
:101A5000610508940895E894BB2766277727CB0192
:101A600097F9089594D008F48FEF08950AD0C0CF65
:101A7000B1DF28F0B6DF18F0952309F0A2CFA7CF89
:101A8000EBCFC7DFA8F39923D9F35523C9F3950FFB
:101A900050E0551FAA27EE27FF27BB2700240894F4
:101AA000679520F4E20FF31FB41F0A1E220F331FA5
:101AB000441FAA1F6695A9F7779530F4F30FB41F5A
:101AC0000A1E121E08F46395330F441FAA1F221F1B
:101AD000769599F7879520F4B40F0A1E121E631F9E
:101AE000440FAA1F221F331F8695A9F7862F712D39
:101AF000602D11249F5750408AF0E1F088234AF06E
:101B0000EE0FFF1FBB1F661F771F881F91505040AD
:101B1000A9F79E3F510570F054CF9ECF5F3FECF385
:101B2000983EDCF3869577956795B795F795E79599
:101B30009F5FC1F7FE2B880F911D9695879597F9AA
:101B400008956FDFE0F09E37D8F09639B8F49E38EC
:101B500048F4672F782F8827985FF9CF8695779577
:101B6000679593959539D0F3B62FB1706B0F711DB2
:101B7000811D20F487957795679593952CC046C075
:101B80006BCF9F9352D00F9007FCEE5F75C0990FFB
:101B90000008550FAA0BE0E8FEEF16161706E80737
:101BA000F907C0F012161306E407F50798F0621B58
:101BB000730B840B950B39F40A2661F0232B242B2D
:101BC000252B21F408950A2609F4A140A6958FEF4C
:101BD000811D811D0895882371F4772321F0985089
:101BE000872B762F07C0662311F499270DC09051DB
:101BF000862B70E060E02AF09A95660F771F881FA9
:101C0000DAF7880F9695879597F908959F3F31F0F9
:101C1000915020F4879577956795B795880F911D1A
:101C20009695879597F90895D2CEFBDEE8F3E89470
:101C3000E0E0BB279F57F0F02AED3FE049EC06C0FB
:101C4000EE0FBB0F661F771F881F28F0B23A62079E
:101C50007307840728F0B25A620B730B840BE39569
:101C60009A9572F7803830F49A95BB0F661F771FEC
:101C7000881FD2F79048CCCFEF93E0FF06C0A2EACE
:101C80002AED3FE049EC5FEB73DDB2DE0F90039489
:101C900001FC9058E2E2F0E000C09F938F937F93A5
:101CA0006F93FF93EF939B01AC01E0DEEF91FF9107
:101CB00005D02F913F914F915F91D8CEDF93CF9375
:101CC0001F930F93FF92EF92DF927B018C01689438
:101CD00005C0DA2EEF01D5DEFE01E894A59125912D
:101CE000359145915591AEF3EF0142DDFE0197012B
:101CF000A801DA9479F7DF90EF90FF900F911F9190
:101D0000CF91DF9108950024552704C0080E591F74
:101D1000880F991F009729F076956795B8F371059C
:101D2000B9F7802D952F0895EE27FF27AA27BB2707
:101D300008C0A20FB31FE41FF51F220F331F441F5B
:101D4000551F969587957795679598F37040A9F7F5
:101D5000009799F7BD01CF010895991B79E004C060
:101D6000991F961708F0961B881F7A95C9F78095DA
:101D70000895AA1BBB1B51E107C0AA1FBB1FA617D2
:101D8000B70710F0A61BB70B881F991F5A95A9F724
:101D900080959095BC01CD01089597FB072E16F410
:101DA000009406D077FD08D0E4DF07FC05D03EF4B0
:101DB000909581959F4F0895709561957F4F0895F7
:101DC000A1E21A2EAA1BBB1BFD010DC0AA1FBB1F3F
:101DD000EE1FFF1FA217B307E407F50720F0A21BB1
:101DE000B30BE40BF50B661F771F881F991F1A941E
:101DF00069F760957095809590959B01AC01BD0148
:101E0000CF0108958F929F92AF92BF92CF92DF92AF
:101E1000EF92FF92CF93DF93EC01688179818A8101
:101E20009B81611571058105910521F464E279EDCD
:101E30008BE597E02DE133EF41E050E07CD04901A4
:101E40005A0127EA31E440E050E06EDF6B017C018B
:101E50002CEE34EF4FEF5FEFC501B40165DFDC011D
:101E6000CB018C0D9D1DAE1DBF1DB7FF03C001979B
:101E7000A109B04888839983AA83BB839F77DF91A8
:101E8000CF91FF90EF90DF90CF90BF90AF909F9059
:101E90008F900895B7DF089580E690E0B3DF08954E
:101EA000A0E0B0E08093600090936100A093620096
:101EB000B09363000895E199FECF9FBB8EBBE09A7B
:101EC00099278DB30895A6E1B0E044E050E025C025
:101ED000A8E1B0E042E050E020C0262FE199FECF1B
:101EE0009FBB8EBBE09A01970DB2021639F01CBA67
:101EF0002DBB0FB6F894E29AE19A0FBE08950396AF
:101F0000272FECDFEADF252FE9DF242FE7CF01962B
:101F1000272FE4DFE2CFDC01CB01FC01E199FECF0A
:101F200006C0FFBBEEBBE09A31960DB20D92415058
:101F30005040B8F70895052E97FB16F400940FD083
:101F400057FD05D03DDF07FC02D046F408C0509590
:101F50004095309521953F4F4F4F5F4F0895909595
:101F60008095709561957F4F8F4F9F4F0895F8949E
:021F7000FFCFA1
:081F720001000000F401000071
:00000001FF
